{
  "_format": "hh-sol-artifact-1",
  "contractName": "ChainMall",
  "sourceName": "contracts/ChainMall.sol",
  "abi": [
    {
      "inputs": [],
      "stateMutability": "nonpayable",
      "type": "constructor"
    },
    {
      "anonymous": false,
      "inputs": [
        {
          "indexed": true,
          "internalType": "uint256",
          "name": "orderId",
          "type": "uint256"
        },
        {
          "indexed": false,
          "internalType": "enum ChainMall.OrderStatus",
          "name": "status",
          "type": "uint8"
        }
      ],
      "name": "OrderStatusChanged",
      "type": "event"
    },
    {
      "anonymous": false,
      "inputs": [
        {
          "indexed": true,
          "internalType": "uint256",
          "name": "productId",
          "type": "uint256"
        }
      ],
      "name": "ProductDeactivated",
      "type": "event"
    },
    {
      "anonymous": false,
      "inputs": [
        {
          "indexed": true,
          "internalType": "uint256",
          "name": "productId",
          "type": "uint256"
        },
        {
          "indexed": true,
          "internalType": "address",
          "name": "seller",
          "type": "address"
        },
        {
          "indexed": false,
          "internalType": "string",
          "name": "name",
          "type": "string"
        },
        {
          "indexed": false,
          "internalType": "uint256",
          "name": "price",
          "type": "uint256"
        },
        {
          "indexed": false,
          "internalType": "string",
          "name": "category",
          "type": "string"
        },
        {
          "indexed": false,
          "internalType": "string",
          "name": "imageHash",
          "type": "string"
        }
      ],
      "name": "ProductListed",
      "type": "event"
    },
    {
      "anonymous": false,
      "inputs": [
        {
          "indexed": true,
          "internalType": "uint256",
          "name": "orderId",
          "type": "uint256"
        },
        {
          "indexed": true,
          "internalType": "uint256",
          "name": "productId",
          "type": "uint256"
        },
        {
          "indexed": true,
          "internalType": "address",
          "name": "buyer",
          "type": "address"
        }
      ],
      "name": "ProductPurchased",
      "type": "event"
    },
    {
      "inputs": [],
      "name": "admin",
      "outputs": [
        {
          "internalType": "address",
          "name": "",
          "type": "address"
        }
      ],
      "stateMutability": "view",
      "type": "function"
    },
    {
      "inputs": [
        {
          "internalType": "address",
          "name": "",
          "type": "address"
        },
        {
          "internalType": "uint256",
          "name": "",
          "type": "uint256"
        }
      ],
      "name": "buyerOrders",
      "outputs": [
        {
          "internalType": "uint256",
          "name": "",
          "type": "uint256"
        }
      ],
      "stateMutability": "view",
      "type": "function"
    },
    {
      "inputs": [
        {
          "internalType": "uint256",
          "name": "orderId",
          "type": "uint256"
        }
      ],
      "name": "cancelOrder",
      "outputs": [],
      "stateMutability": "nonpayable",
      "type": "function"
    },
    {
      "inputs": [
        {
          "internalType": "uint256",
          "name": "productId",
          "type": "uint256"
        }
      ],
      "name": "deactivateProduct",
      "outputs": [],
      "stateMutability": "nonpayable",
      "type": "function"
    },
    {
      "inputs": [],
      "name": "getAllProducts",
      "outputs": [
        {
          "components": [
            {
              "internalType": "uint256",
              "name": "id",
              "type": "uint256"
            },
            {
              "internalType": "string",
              "name": "name",
              "type": "string"
            },
            {
              "internalType": "string",
              "name": "description",
              "type": "string"
            },
            {
              "internalType": "uint256",
              "name": "price",
              "type": "uint256"
            },
            {
              "internalType": "address payable",
              "name": "seller",
              "type": "address"
            },
            {
              "internalType": "string",
              "name": "category",
              "type": "string"
            },
            {
              "internalType": "string",
              "name": "imageHash",
              "type": "string"
            },
            {
              "internalType": "bool",
              "name": "isActive",
              "type": "bool"
            },
            {
              "internalType": "uint256",
              "name": "createdAt",
              "type": "uint256"
            }
          ],
          "internalType": "struct ChainMall.Product[]",
          "name": "",
          "type": "tuple[]"
        }
      ],
      "stateMutability": "view",
      "type": "function"
    },
    {
      "inputs": [],
      "name": "getMyOrders",
      "outputs": [
        {
          "components": [
            {
              "internalType": "uint256",
              "name": "id",
              "type": "uint256"
            },
            {
              "internalType": "uint256",
              "name": "productId",
              "type": "uint256"
            },
            {
              "internalType": "address payable",
              "name": "buyer",
              "type": "address"
            },
            {
              "internalType": "enum ChainMall.OrderStatus",
              "name": "status",
              "type": "uint8"
            },
            {
              "internalType": "uint256",
              "name": "createdAt",
              "type": "uint256"
            },
            {
              "internalType": "uint256",
              "name": "updatedAt",
              "type": "uint256"
            },
            {
              "internalType": "string",
              "name": "buyerMessage",
              "type": "string"
            },
            {
              "internalType": "string",
              "name": "adminMessage",
              "type": "string"
            }
          ],
          "internalType": "struct ChainMall.Order[]",
          "name": "",
          "type": "tuple[]"
        }
      ],
      "stateMutability": "view",
      "type": "function"
    },
    {
      "inputs": [],
      "name": "getMySales",
      "outputs": [
        {
          "components": [
            {
              "internalType": "uint256",
              "name": "id",
              "type": "uint256"
            },
            {
              "internalType": "uint256",
              "name": "productId",
              "type": "uint256"
            },
            {
              "internalType": "address payable",
              "name": "buyer",
              "type": "address"
            },
            {
              "internalType": "enum ChainMall.OrderStatus",
              "name": "status",
              "type": "uint8"
            },
            {
              "internalType": "uint256",
              "name": "createdAt",
              "type": "uint256"
            },
            {
              "internalType": "uint256",
              "name": "updatedAt",
              "type": "uint256"
            },
            {
              "internalType": "string",
              "name": "buyerMessage",
              "type": "string"
            },
            {
              "internalType": "string",
              "name": "adminMessage",
              "type": "string"
            }
          ],
          "internalType": "struct ChainMall.Order[]",
          "name": "",
          "type": "tuple[]"
        }
      ],
      "stateMutability": "view",
      "type": "function"
    },
    {
      "inputs": [
        {
          "internalType": "uint256",
          "name": "productId",
          "type": "uint256"
        }
      ],
      "name": "getProduct",
      "outputs": [
        {
          "components": [
            {
              "internalType": "uint256",
              "name": "id",
              "type": "uint256"
            },
            {
              "internalType": "string",
              "name": "name",
              "type": "string"
            },
            {
              "internalType": "string",
              "name": "description",
              "type": "string"
            },
            {
              "internalType": "uint256",
              "name": "price",
              "type": "uint256"
            },
            {
              "internalType": "address payable",
              "name": "seller",
              "type": "address"
            },
            {
              "internalType": "string",
              "name": "category",
              "type": "string"
            },
            {
              "internalType": "string",
              "name": "imageHash",
              "type": "string"
            },
            {
              "internalType": "bool",
              "name": "isActive",
              "type": "bool"
            },
            {
              "internalType": "uint256",
              "name": "createdAt",
              "type": "uint256"
            }
          ],
          "internalType": "struct ChainMall.Product",
          "name": "",
          "type": "tuple"
        }
      ],
      "stateMutability": "view",
      "type": "function"
    },
    {
      "inputs": [
        {
          "internalType": "string",
          "name": "name",
          "type": "string"
        },
        {
          "internalType": "string",
          "name": "description",
          "type": "string"
        },
        {
          "internalType": "uint256",
          "name": "price",
          "type": "uint256"
        },
        {
          "internalType": "string",
          "name": "category",
          "type": "string"
        },
        {
          "internalType": "string",
          "name": "imageHash",
          "type": "string"
        }
      ],
      "name": "listProduct",
      "outputs": [],
      "stateMutability": "nonpayable",
      "type": "function"
    },
    {
      "inputs": [
        {
          "internalType": "uint256",
          "name": "orderId",
          "type": "uint256"
        }
      ],
      "name": "markAsCompleted",
      "outputs": [],
      "stateMutability": "nonpayable",
      "type": "function"
    },
    {
      "inputs": [
        {
          "internalType": "uint256",
          "name": "orderId",
          "type": "uint256"
        }
      ],
      "name": "markAsShipped",
      "outputs": [],
      "stateMutability": "nonpayable",
      "type": "function"
    },
    {
      "inputs": [],
      "name": "nextOrderId",
      "outputs": [
        {
          "internalType": "uint256",
          "name": "",
          "type": "uint256"
        }
      ],
      "stateMutability": "view",
      "type": "function"
    },
    {
      "inputs": [],
      "name": "nextProductId",
      "outputs": [
        {
          "internalType": "uint256",
          "name": "",
          "type": "uint256"
        }
      ],
      "stateMutability": "view",
      "type": "function"
    },
    {
      "inputs": [
        {
          "internalType": "uint256",
          "name": "",
          "type": "uint256"
        }
      ],
      "name": "orders",
      "outputs": [
        {
          "internalType": "uint256",
          "name": "id",
          "type": "uint256"
        },
        {
          "internalType": "uint256",
          "name": "productId",
          "type": "uint256"
        },
        {
          "internalType": "address payable",
          "name": "buyer",
          "type": "address"
        },
        {
          "internalType": "enum ChainMall.OrderStatus",
          "name": "status",
          "type": "uint8"
        },
        {
          "internalType": "uint256",
          "name": "createdAt",
          "type": "uint256"
        },
        {
          "internalType": "uint256",
          "name": "updatedAt",
          "type": "uint256"
        },
        {
          "internalType": "string",
          "name": "buyerMessage",
          "type": "string"
        },
        {
          "internalType": "string",
          "name": "adminMessage",
          "type": "string"
        }
      ],
      "stateMutability": "view",
      "type": "function"
    },
    {
      "inputs": [
        {
          "internalType": "uint256",
          "name": "",
          "type": "uint256"
        }
      ],
      "name": "products",
      "outputs": [
        {
          "internalType": "uint256",
          "name": "id",
          "type": "uint256"
        },
        {
          "internalType": "string",
          "name": "name",
          "type": "string"
        },
        {
          "internalType": "string",
          "name": "description",
          "type": "string"
        },
        {
          "internalType": "uint256",
          "name": "price",
          "type": "uint256"
        },
        {
          "internalType": "address payable",
          "name": "seller",
          "type": "address"
        },
        {
          "internalType": "string",
          "name": "category",
          "type": "string"
        },
        {
          "internalType": "string",
          "name": "imageHash",
          "type": "string"
        },
        {
          "internalType": "bool",
          "name": "isActive",
          "type": "bool"
        },
        {
          "internalType": "uint256",
          "name": "createdAt",
          "type": "uint256"
        }
      ],
      "stateMutability": "view",
      "type": "function"
    },
    {
      "inputs": [
        {
          "internalType": "uint256",
          "name": "productId",
          "type": "uint256"
        },
        {
          "internalType": "string",
          "name": "buyerMessage",
          "type": "string"
        }
      ],
      "name": "purchaseProduct",
      "outputs": [],
      "stateMutability": "payable",
      "type": "function"
    },
    {
      "inputs": [
        {
          "internalType": "uint256",
          "name": "orderId",
          "type": "uint256"
        },
        {
          "internalType": "string",
          "name": "reason",
          "type": "string"
        }
      ],
      "name": "raiseDispute",
      "outputs": [],
      "stateMutability": "nonpayable",
      "type": "function"
    },
    {
      "inputs": [
        {
          "internalType": "uint256",
          "name": "orderId",
          "type": "uint256"
        },
        {
          "internalType": "bool",
          "name": "refundBuyer",
          "type": "bool"
        },
        {
          "internalType": "string",
          "name": "resolutionNote",
          "type": "string"
        }
      ],
      "name": "resolveDispute",
      "outputs": [],
      "stateMutability": "nonpayable",
      "type": "function"
    },
    {
      "inputs": [
        {
          "internalType": "address",
          "name": "",
          "type": "address"
        },
        {
          "internalType": "uint256",
          "name": "",
          "type": "uint256"
        }
      ],
      "name": "sellerProducts",
      "outputs": [
        {
          "internalType": "uint256",
          "name": "",
          "type": "uint256"
        }
      ],
      "stateMutability": "view",
      "type": "function"
    }
  ],
  "bytecode": "0x6080806040523461002857600080546001600160a01b0319163317905561216f908161002e8239f35b600080fdfe6080604052600436101561001257600080fd5b60003560e01c806302ee3a52146119b65780632840662d1461171a5780632a58b330146116fc5780634500cb60146116c05780634de91a63146116a2578063514fcac7146115905780635aef573c1461139b5780637827f81f14610ca95780637acc0b2014610bc65780638af3424614610757578063a85c38ef146106a6578063b9db15b4146105da578063bab5933a1461054f578063bd99840e1461043f578063c0a6026c14610316578063c1302b34146102cc578063ebadff69146101c3578063f851a4401461019a5763fd77e5de146100ed57600080fd5b3461019557602036600319011261019557600480356000818152600360205260409020909101546001600160a01b0316330361016357806000526003602052600760406000200160ff1981541690557f241c84b17626110b8c42e26f8f7de483066e7f266953509e01046f09e6fdd6cc600080a2005b60405162461bcd60e51b815260206004820152600a6024820152692737ba1039b2b63632b960b11b6044820152606490fd5b600080fd5b34610195576000366003190112610195576000546040516001600160a01b039091168152602090f35b34610195576000366003190112610195576002546000805b82811061027f57506101ec90612010565b906000805b82811061020a57604051806102068682611e36565b0390f35b8060019160005260206004815282604060002001546000526003815233838060a01b036004604060002001541614610244575b50016101f1565b600490826000525261027860406000209361026761026182611fb1565b95612098565b6102718289611f65565b5286611f65565b508561023d565b806000526003602060048152600160406000200154600052523360018060a01b0360046040600020015416146102b8575b6001016101db565b906102c4600191611fb1565b9190506102b0565b34610195576102da36611cc4565b6001600160a01b03909116600090815260056020526040902080548210156101955760209161030891611cea565b90546040519160031b1c8152f35b34610195576020806003193601126101955760043590816000526004815260018060a01b0361035081600260406000200154163314611f79565b8260005260048252604060002060028101805460ff8160a01c166006811015610429576001036103f05760009360018594859485948360a11b9060ff60a01b1916179055426004820155015482526003865260036040832091600483015416910154908282156103e7575bf1156103db5760008051602061211a8339815191529060405160028152a2005b6040513d6000823e3d90fd5b506108fc6103bb565b60405162461bcd60e51b815260048101869052601160248201527013dc99195c881b9bdd081cda1a5c1c1959607a1b6044820152606490fd5b634e487b7160e01b600052602160045260246000fd5b346101955760208060031936011261019557600435806000526004825260406000209160018301546000526003815260018060a01b0360046040600020015416330361050b57600283019283549360ff8560a01c166006811015610429576104d25760008051602061211a8339815191529394600160a01b9060ff60a01b191617905560044291015560405160018152a2005b60405162461bcd60e51b81526004810184905260116024820152704f72646572206e6f742070656e64696e6760781b6044820152606490fd5b6064906040519062461bcd60e51b82526004820152601f60248201527f4f6e6c792073656c6c65722063616e206d61726b2061732073686970706564006044820152fd5b3461019557600036600319011261019557336000526020600660205260406000209081549061057d82612010565b9260005b83811061059657604051806102068782611e36565b806105a360019284611cea565b90549060031b1c600052600484526105be6040600020612098565b6105c88288611f65565b526105d38187611f65565b5001610581565b34610195576020366003190112610195576105f3611f1d565b506004356000526003602052610206604060002060086040519161061683611c15565b8054835261062660018201611d84565b602084015261063760028201611d84565b60408401526003810154606084015260048101546001600160a01b0316608084015261066560058201611d84565b60a084015261067660068201611d84565b60c084015260ff600782015416151560e08401520154610100820152604051918291602083526020830190611b81565b346101955760203660031901126101955760043560005260046020526040600020805461020660018301549161074960028501549460038101549260048201546106fe60066106f760058601611d84565b9401611d84565b94610731604051998a99610100958b5260208b015260018060a01b03811660408b015260ff60608b019160a01c16611e29565b608088015260a08701528060c0870152850190611b41565b9083820360e0850152611b41565b61076036611d18565b90806000526003602052604060002060ff60078201541615610b895760038101543403610b5057600401546001600160a01b03163314610b0b57600254906107a782611fb1565b600255604051926107b784611c31565b828452816020850152336040850152600060608501524260808501524260a085015260c08401526040518060208101106001600160401b03602083011117610a2c57602081016040526000815260e0840152816000526004602052604060002083518155602084015160018201556002810160018060a01b0360408601511681549060608701516006811015610429576001600160a81b03199092161760a091821b60ff60a01b161790915560808501516003830155840151600482015560c08401518051906001600160401b038211610a2c576108986005840154611d4a565b601f8111610ac0575b50602090601f8311600114610a4d57918060e09492600694600092610a42575b50508160011b916000199060031b1c19161760058201555b019301519283516001600160401b038111610a2c576108f88254611d4a565b601f81116109e4575b50602094601f821160011461097e57948192939495600092610973575b50508160011b916000199060031b1c19161790555b33600052600660205261094a826040600020611fd6565b33917fcf56b0adeb8d78b1faf3ec7294369603647cda5633357436d89fb3e653fabf81600080a4005b01519050858061091e565b601f198216958360005260206000209160005b8881106109cc575083600195969798106109b3575b505050811b019055610933565b015160001960f88460031b161c191690558580806109a6565b91926020600181928685015181550194019201610991565b826000526020600020601f830160051c81019160208410610a22575b601f0160051c01905b818110610a165750610901565b60008155600101610a09565b9091508190610a00565b634e487b7160e01b600052604160045260246000fd5b0151905088806108c1565b90601f198316916005850160005260206000209260005b818110610aa8575092600192859260069660e0989610610a8f575b505050811b0160058201556108d9565b015160001960f88460031b161c19169055888080610a7f565b92936020600181928786015181550195019301610a64565b600584016000526020600020601f840160051c81019160208510610b01575b601f0160051c01905b818110610af557506108a1565b60008155600101610ae8565b9091508190610adf565b60405162461bcd60e51b815260206004820152601d60248201527f53656c6c65722063616e6e6f7420627579206f776e2070726f647563740000006044820152606490fd5b60405162461bcd60e51b8152602060048201526011602482015270125b98dbdc9c9958dd081c185e5b595b9d607a1b6044820152606490fd5b60405162461bcd60e51b815260206004820152601560248201527450726f64756374206e6f7420617661696c61626c6560581b6044820152606490fd5b3461019557602036600319011261019557600435600052600360205260406000208054610bf560018301611d84565b91610c0260028201611d84565b610c976003830154610c8960018060a01b0360048601541691610c2760058701611d84565b610c3360068801611d84565b93610c71600860ff60078b01541699015497610c636040519c8d809d6020610120928392815201528d0190611b41565b908b820360408d0152611b41565b9260608a0152608089015287820360a0890152611b41565b9085820360c0870152611b41565b91151560e08401526101008301520390f35b346101955760a0366003190112610195576004356001600160401b03811161019557610cd9903690600401611c6e565b6024356001600160401b03811161019557610cf8903690600401611c6e565b6064356001600160401b03811161019557610d17903690600401611c6e565b916084356001600160401b03811161019557610d37903690600401611c6e565b92604435156113565760015492610d4d84611fb1565b60015560405190610d5d82611c15565b848252836020830152604082015260443560608201523360808201528160a08201528460c0820152600160e0820152426101008201528360005260036020526040600020908051825560208101518051906001600160401b038211610a2c578190610dcb6001860154611d4a565b601f8111611303575b50602090601f831160011461129157600092611286575b50508160011b916000199060031b1c19161760018301555b60408101518051906001600160401b038211610a2c578190610e286002860154611d4a565b601f8111611233575b50602090601f83116001146111c1576000926111b6575b50508160011b916000199060031b1c19161760028301555b606081015160038301556004820160018060a01b036080830151166bffffffffffffffffffffffff60a01b82541617905560a08101518051906001600160401b038211610a2c578190610eb66005860154611d4a565b601f8111611163575b50602090601f83116001146110f1576000926110e6575b50508160011b916000199060031b1c19161760058301555b60c08101518051906001600160401b038211610a2c57610f116006850154611d4a565b601f811161109f575b50602090601f8311600114610ffc57936008610100610fec9585610fdd96610fc79a967fdbf3251aecf24a407751a789eac67b246d6ff9e34f67d6486e76bd15cc380f999c9a600092610ff1575b50508160011b916000199060031b1c19161760068501555b6007840160e0820151151560ff801983541691161790550151910155336000526005602052610fb3876040600020611fd6565b604051948594608086526080860190611b41565b9060443560208601528482036040860152611b41565b82810360608401523396611b41565b0390a3005b015190508e80610f68565b906006850160005260206000209160005b601f19851681106110875750610100610fec95600186610fc79a967fdbf3251aecf24a407751a789eac67b246d6ff9e34f67d6486e76bd15cc380f999c9a96600896610fdd9a601f1981161061106e575b505050811b016006850155610f80565b015160001960f88460031b161c191690558e808061105e565b9192602060018192868501518155019401920161100d565b600685016000526020600020601f840160051c8101602085106110df575b601f830160051c820181106110d3575050610f1a565b600081556001016110bd565b50806110bd565b015190508880610ed6565b9250600585016000526020600020906000935b601f1984168510611148576001945083601f1981161061112f575b505050811b016005830155610eee565b015160001960f88460031b161c1916905588808061111f565b81810151835560209485019460019093019290910190611104565b909150600585016000526020600020601f840160051c8101602085106111af575b90849392915b601f830160051c820181106111a0575050610ebf565b6000815585945060010161118a565b5080611184565b015190508880610e48565b9250600285016000526020600020906000935b601f1984168510611218576001945083601f198116106111ff575b505050811b016002830155610e60565b015160001960f88460031b161c191690558880806111ef565b818101518355602094850194600190930192909101906111d4565b909150600285016000526020600020601f840160051c81016020851061127f575b90849392915b601f830160051c82018110611270575050610e31565b6000815585945060010161125a565b5080611254565b015190508880610deb565b9250600185016000526020600020906000935b601f19841685106112e8576001945083601f198116106112cf575b505050811b016001830155610e03565b015160001960f88460031b161c191690558880806112bf565b818101518355602094850194600190930192909101906112a4565b909150600185016000526020600020601f840160051c81016020851061134f575b90849392915b601f830160051c82018110611340575050610dd4565b6000815585945060010161132a565b5080611324565b60405162461bcd60e51b815260206004820152601c60248201527f5072696365206d7573742062652067726561746572207468616e2030000000006044820152606490fd5b34610195576113a936611d18565b90806000526020600481526113cf60018060a01b03600260406000200154163314611f79565b81600052600481526040600020600281019081549160ff8360a01c1692600684101561042957600180940361154b5760ff60a01b1916600160a21b17905542600482015584519460059190910191906001600160401b038611610a2c576114368354611d4a565b601f8111611502575b508390601f871160011461149257958092819260008051602061211a8339815191529798600094611487575b50501b916000199060031b1c19161790555b60405160048152a2005b01519250888061146b565b9590601f1982169084600052856000209160005b8181106114ed5750978360008051602061211a8339815191529899106114d4575b505050811b01905561147d565b015160001960f88460031b161c191690558680806114c7565b898301518455928501929187019187016114a6565b8360005284600020601f880160051c810191868910611541575b601f0160051c019083905b82811061153557505061143f565b60008155018390611527565b909150819061151c565b60405162461bcd60e51b815260048101869052601f60248201527f43616e206f6e6c7920646973707574652073686970706564206f7264657273006044820152606490fd5b34610195576020806003193601126101955760043590816000526004815260018060a01b036115ca81600260406000200154163314611f79565b82600052600482526040600020600281019081549160ff8360a01c1660068110156104295761165d5760ff60a01b198316600360a01b1790554260048201556001015460009081526003808552604082200154909283928392839290918391908315611653575b1690f1156103db5760008051602061211a8339815191529060405160038152a2005b6108fc9250611631565b60405162461bcd60e51b815260048101869052601c60248201527f43616e6e6f742063616e63656c206166746572207368697070696e67000000006044820152606490fd5b34610195576000366003190112610195576020600154604051908152f35b34610195576116ce36611cc4565b6001600160a01b03909116600090815260066020526040902080548210156101955760209161030891611cea565b34610195576000366003190112610195576020600254604051908152f35b34610195576060366003190112610195576024356004358115158203610195576001600160401b036044358181116101955761175a903690600401611c6e565b6000549093906001600160a01b03908116330361198557836000526020926004845260406000206002810191825460ff8160a01c166006811015610429576004036119535760ff60a01b1916600560a01b178355426004830155875160068301918111610a2c576117cb8254611d4a565b601f811161190d575b5086601f821160011461189b576000979899938897949383899895946001948a99968a92611890575b505081851b9189199060031b1c19161790555b015484526003885260408420600381015493851461185d57505416828215611854575bf1156103db5760008051602061211a833981519152905b60405160058152a2005b506108fc611833565b60049150015416828215611887575bf1156103db5760008051602061211a8339815191529061184a565b506108fc61186c565b015190508e806117fd565b601f1982169983600052886000209a60005b8181106118f657509360018460009b9c9d82958d9c99958d9c99988d9c99106118de575b505050811b019055611810565b01518a1960f88460031b161c191690558e80806118d1565b838301518d556001909c019b928a01928a016118ad565b8260005287600020601f830160051c810191898410611949575b601f0160051c01905b81811061193d57506117d4565b60008155600101611930565b9091508190611927565b60405162461bcd60e51b815260048101889052600a6024820152694e6f206469737075746560b01b6044820152606490fd5b60405162461bcd60e51b81526020600482015260096024820152682737ba1030b236b4b760b91b6044820152606490fd5b3461019557600036600319011261019557600180546119d481611f06565b916119e26040519384611c4d565b8183526119ee82611f06565b60209290601f190160005b818110611b2557505060005b818110611a6d57505060405191808301818452845180915260408401918060408360051b8701019601926000905b838210611a405786880387f35b90919293948380611a5c839a603f198b82030186528951611b81565b999701959493919091019101611a33565b918281959360005260038086526008604060002060405192611a8e84611c15565b81548452611a9d868301611d84565b89850152611aad60028301611d84565b6040850152810154606084015260048101546001600160a01b03166080840152611ad960058201611d84565b60a0840152611aea60068201611d84565b60c084015260ff600782015416151560e08401520154610100820152611b108286611f65565b52611b1b8185611f65565b5001939193611a05565b8490611b32969496611f1d565b828287010152019492946119f9565b919082519283825260005b848110611b6d575050826000602080949584010152601f8019910116010190565b602081830181015184830182015201611b4c565b90611bfb611be9611bbb611ba961012086518652602087015190806020880152860190611b41565b60408601518582036040870152611b41565b6060850151606085015260018060a01b03608086015116608085015260a085015184820360a0860152611b41565b60c084015183820360c0850152611b41565b9160e0810151151560e08301526101008091015191015290565b61012081019081106001600160401b03821117610a2c57604052565b61010081019081106001600160401b03821117610a2c57604052565b90601f801991011681019081106001600160401b03821117610a2c57604052565b81601f82011215610195578035906001600160401b038211610a2c5760405192611ca2601f8401601f191660200185611c4d565b8284526020838301011161019557816000926020809301838601378301015290565b6040906003190112610195576004356001600160a01b0381168103610195579060243590565b8054821015611d025760005260206000200190600090565b634e487b7160e01b600052603260045260246000fd5b9060406003198301126101955760043591602435906001600160401b03821161019557611d4791600401611c6e565b90565b90600182811c92168015611d7a575b6020831014611d6457565b634e487b7160e01b600052602260045260246000fd5b91607f1691611d59565b90604051918260008254611d9781611d4a565b90818452602094600191600181169081600014611e075750600114611dc8575b505050611dc692500383611c4d565b565b600090815285812095935091905b818310611def575050611dc69350820101388080611db7565b85548884018501529485019487945091830191611dd6565b92505050611dc694925060ff191682840152151560051b820101388080611db7565b9060068210156104295752565b6020808201908083528351809252604092604081018260408560051b8401019601946000925b858410611e6d575050505050505090565b909192939495968580611ef5600193603f198682030188528b51611ee2610100825184528583015186850152878060a01b038a840151168a850152611eba60608085015190860190611e29565b6080808401519085015260a0808401519085015260c090808285015192860152840190611b41565b9160e08092015191818403910152611b41565b990194019401929594939190611e5c565b6001600160401b038111610a2c5760051b60200190565b60405190611f2a82611c15565b6000610100838281526060602082015260606040820152826060820152826080820152606060a0820152606060c08201528260e08201520152565b8051821015611d025760209160051b010190565b15611f8057565b60405162461bcd60e51b81526020600482015260096024820152682737ba10313abcb2b960b91b6044820152606490fd5b6000198114611fc05760010190565b634e487b7160e01b600052601160045260246000fd5b805468010000000000000000811015610a2c57611ff891600182018155611cea565b819291549060031b91821b91600019901b1916179055565b9061201a82611f06565b60409061202a6040519182611c4d565b838152809361203b601f1991611f06565b019160005b83811061204d5750505050565b602090825161205b81611c31565b6000815282600081830152600085830152606060008184015260006080840152600060a08401528060c084015260e0830152828601015201612040565b906040516120a581611c31565b825481526001830154602082015260028301546001600160a01b03811660408301529092839160a01c60ff169060068210156104295760066121149160e093606086015260038101546080860152600481015460a086015261210960058201611d84565b60c086015201611d84565b91015256fe15fe7663e318fda785235fa9e39aa6923ffd39fe53631991197fb842f34f6ba9a264697066735822122067d6b3b1fd3a277f67650fa2655f161e2640c6679d340e6e5cc6ff7cebcd542a64736f6c63430008180033",
  "linkReferences": {},
  "deployedLinkReferences": {}
}